:100000000C945D000C9442030C941B030C9485002B
:100010000C9485000C9485000C9485000C9485004C
:100020000C9485000C9469030C9485000C94850055
:100030000C9485000C9485000C9485000C9485002C
:100040000C9479020C9485000C94E9020C94C30280
:100050000C9485000C9485000C9485000C9485000C
:100060000C9485000C9485000000000024002700FB
:100070002A0000000000250028002B0004040404CE
:100080000404040402020202020203030303030342
:10009000010204081020408001020408102001021F
:1000A00004081020000000080002010000030407FB
:1000B00000000000000000009E0411241FBECFEFCE
:1000C000D8E0DEBFCDBF11E0A0E0B1E0E4EFF9E0A1
:1000D00002C005900D92AC32B107D9F721E0ACE235
:1000E000B1E001C01D92A83DB207E1F710E0CDE5F7
:1000F000D0E004C02197FE010E94ED04CC35D10769
:10010000C9F70E94E5030C94F8040C940000809158
:100110002F018F5F80932F010895CF92DF92EF928E
:10012000FF920F931F93CF93DF936C017A018B01A2
:10013000C0E0D0E0CE15DF0589F0D8016D918D01CA
:10014000D601ED91FC910190F081E02DC601099559
:10015000892B11F47E0102C02196ECCFC701DF91FB
:10016000CF911F910F91FF90EF90DF90CF90089566
:10017000089580E090E00895FC01538D448D252F73
:1001800030E0842F90E0821B930B541710F0CF9631
:10019000089501970895FC01918D828D981761F063
:1001A000828DDF01A80FB11D5D968C91928D9F5FAE
:1001B0009F73928F90E008958FEF9FEF0895FC0159
:1001C000918D828D981731F0828DE80FF11D858D0C
:1001D00090E008958FEF9FEF0895FC01918D228D9F
:1001E000892F90E0805C9F4F821B91098F73992724
:1001F00008958BE391E00E94ED0021E0892B09F442
:1002000020E0822F0895FC01848DDF01A80FB11D2D
:10021000A35ABF4F2C91848D90E001968F7399273C
:10022000848FA689B7892C93A089B1898C91806429
:100230008C93938D848D981306C00288F389E02DEA
:1002400080818F7D80830895EF92FF920F931F939B
:10025000CF93DF93EC0181E0888F9B8D8C8D981379
:1002600005C0E889F989808185FD24C0F62E0B8DB3
:1002700010E00F5F1F4F0F731127E02E8C8DE812D7
:100280000CC00FB607FCFACFE889F989808185FF99
:10029000F5CFCE010E940301F1CF8B8DFE01E80F57
:1002A000F11DE35AFF4FF0820B8FEA89FB898081B1
:1002B000806207C0EE89FF896083E889F9898081BF
:1002C0008064808381E090E0DF91CF911F910F9156
:1002D000FF90EF900895CF93DF93EC01888D8823F2
:1002E000C9F0EA89FB89808185FD05C0A889B989A3
:1002F0008C9186FD0FC00FB607FCF5CF808185FF7E
:10030000F2CFA889B9898C9185FFEDCFCE010E94EB
:100310000301E7CFDF91CF91089580E090E0892B32
:1003200029F00E94F90081110C940000089590E0DA
:10033000FC01EC55FF4F3491FC01E057FF4F249135
:10034000FC01E458FF4FE491EE2309F43BC0332352
:1003500039F1333091F038F43130A9F0323001F511
:1003600084B58F7D12C0373091F03830A1F0343031
:10037000B9F4809180008F7D03C0809180008F77D9
:10038000809380000DC084B58F7784BD09C08091B3
:10039000B0008F7703C08091B0008F7D8093B00054
:1003A000F0E0EE0FFF1FEE58FF4FA591B4918FB70D
:1003B000F894EC91611103C020952E2301C02E2BDF
:1003C0002C938FBF0895CF93DF9390E0FC01E0570B
:1003D000FF4F2491FC01E458FF4F8491882361F181
:1003E00090E0880F991FFC01E859FF4FC591D49107
:1003F000FC01EE58FF4FA591B491611109C09FB760
:10040000F8948881209582238883EC912E230BC059
:10041000623061F49FB7F8943881822F80958323EE
:100420008883EC912E2B2C939FBF06C08FB7F89436
:10043000E8812E2B28838FBFDF91CF9108950895F7
:10044000009769F0FC0101900020E9F73197AF01B6
:10045000481B590BBC018BE391E00C948D0080E0AC
:1004600090E00895CF92DF92EF92FF920F931F9347
:10047000CF93DF93CDB7DEB7A1970FB6F894DEBF69
:100480000FBECDBF282F30E040E050E019A28E0112
:100490000F5D1F4F8AE0C82ED12CE12CF12CCA0130
:1004A000B901A70196010E94CB04605DF801629337
:1004B0008F01211531054105510589F7CF010E94B2
:1004C00020028C0186E191E00E942002800F911FA2
:1004D000A1960FB6F894DEBF0FBECDBFDF91CF91CE
:1004E0001F910F91FF90EF90DF90CF9008950E94A1
:1004F000F3041F920F920FB60F9211242F933F9384
:100500008F939F93AF93BF93809137019091380160
:10051000A0913901B0913A013091360123E0230FC7
:100520002D3720F40196A11DB11D05C026E8230F2B
:100530000296A11DB11D209336018093370190933F
:100540003801A0933901B0933A0180913201909122
:100550003301A0913401B09135010196A11DB11D67
:100560008093320190933301A0933401B09335010D
:10057000BF91AF919F918F913F912F910F900FBE9F
:100580000F901F9018951F920F920FB60F92112483
:100590002F933F934F935F936F937F938F939F938B
:1005A000AF93BF93EF93FF938BE391E00E9403011E
:1005B000FF91EF91BF91AF919F918F917F916F913B
:1005C0005F914F913F912F910F900FBE0F901F9011
:1005D00018951F920F920FB60F9211242F938F939D
:1005E0009F93EF93FF93E0914B01F0914C01808139
:1005F000E0915101F091520182FD12C090818091F1
:1006000054018F5F8F7320915501821751F0E09153
:100610005401F0E0E55CFE4F958F8093540101C0DA
:100620008081FF91EF919F918F912F910F900FBE3D
:100630000F901F9018951F920F920FB60F921124D2
:100640002F933F934F935F936F937F938F939F93DA
:10065000AF93BF93EF93FF93E0910201F0910301F9
:100660000995FF91EF91BF91AF919F918F917F91EC
:100670006F915F914F913F912F910F900FBE0F900F
:100680001F9018951F920F920FB60F9211242F935F
:100690003F934F935F936F937F938F939F93AF930A
:1006A000BF93EF93FF93E0910001F0910101099551
:1006B000FF91EF91BF91AF919F918F917F916F913A
:1006C0005F914F913F912F910F900FBE0F901F9010
:1006D00018951F920F920FB60F9211242F933F93EC
:1006E0004F935F936F937F938F939F93AF93BF933A
:1006F000EF93FF9384E68093B20080913001909154
:100700003101019690933101809330018130910540
:1007100071F480912F0180932E0189E191E00E9474
:10072000200280912E010E94320261E010C08230CE
:100730009105A9F480912F0180932D018EE191E024
:100740000E94200280912D010E94320260E086E02A
:100750000E94970161E087E00E94970123C08330E7
:100760009105D1F480912F0180932C0185E291E0D5
:100770000E94200280912C010E94320287E191E0C8
:100780000E94200286E191E00E94200260E086E063
:100790000E94970160E0DFCF049721F410923101AD
:1007A0001092300110922F01FF91EF91BF91AF9104
:1007B0009F918F917F916F915F914F913F912F9179
:1007C0000F900FBE0F901F901895789484B582609B
:1007D00084BD84B5816084BD85B5826085BD85B5E5
:1007E000816085BD80916E00816080936E00109263
:1007F00081008091810082608093810080918100DE
:10080000816080938100809180008160809380006E
:100810008091B10084608093B1008091B0008160CC
:100820008093B00080917A00846080937A008091F8
:100830007A00826080937A0080917A008160809350
:100840007A0080917A00806880937A001092C100CB
:10085000E0914B01F0914C0182E08083E0914701EF
:10086000F09148011082E0914901F0914A0180E144
:10087000808310925301E0914F01F091500186E086
:100880008083E0914D01F0914E01808180618083F1
:10089000E0914D01F0914E01808188608083E0916C
:1008A0004D01F0914E01808180688083E0914D017F
:1008B000F0914E0180818F7D808361E084E00E9411
:1008C000E30161E085E00E94E30161E086E00E94CF
:1008D000E30161E087E00E94E30160E088E00E94BC
:1008E000E301109231011092300161E085E00E9435
:1008F000970161E084E00E94970160E086E00E9439
:10090000970160E087E00E94970187E890E090936C
:10091000010180930001809169008C7F8160809348
:100920006900E89A1092B00087E08093B10084E6F5
:100930008093B20081E080937000FFCFEBE3F1E0A1
:100940001382128288EE93E0A0E0B0E08483958366
:10095000A683B78388E091E09183808385EC90E063
:100960009587848784EC90E09787868780EC90E079
:10097000918B808B81EC90E0938B828B82EC90E06A
:10098000958B848B86EC90E0978B868B118E128EE4
:10099000138E148E0895A1E21A2EAA1BBB1BFD0113
:1009A0000DC0AA1FBB1FEE1FFF1FA217B307E4074E
:1009B000F50720F0A21BB30BE40BF50B661F771FA6
:1009C000881F991F1A9469F7609570958095909586
:1009D0009B01AC01BD01CF010895EE0FFF1F0590F3
:1009E000F491E02D099481E090E0F8940C94F804DF
:0409F000F894FFCFA9
:1009F4001F021F020000000024018D00BC006B01D7
:100A0400ED00CB00DF000D0A007265643D006772E3
:0C0A140065656E3D00626C75653D00007C
:107E0000112484B714BE81FFF0D085E080938100F7
:107E100082E08093C00088E18093C10086E0809377
:107E2000C20080E18093C4008EE0C9D0259A86E02C
:107E300020E33CEF91E0309385002093840096BBD3
:107E4000B09BFECF1D9AA8958150A9F7CC24DD24C4
:107E500088248394B5E0AB2EA1E19A2EF3E0BF2EE7
:107E6000A2D0813461F49FD0082FAFD0023811F036
:107E7000013811F484E001C083E08DD089C08234E0
:107E800011F484E103C0853419F485E0A6D080C0E4
:107E9000853579F488D0E82EFF2485D0082F10E0AE
:107EA000102F00270E291F29000F111F8ED06801E7
:107EB0006FC0863521F484E090D080E0DECF843638
:107EC00009F040C070D06FD0082F6DD080E0C81688
:107ED00080E7D80618F4F601B7BEE895C0E0D1E017
:107EE00062D089930C17E1F7F0E0CF16F0E7DF06D8
:107EF00018F0F601B7BEE89568D007B600FCFDCFD4
:107F0000A601A0E0B1E02C9130E011968C91119780
:107F100090E0982F8827822B932B1296FA010C0160
:107F200087BEE89511244E5F5F4FF1E0A038BF0790
:107F300051F7F601A7BEE89507B600FCFDCF97BE46
:107F4000E89526C08437B1F42ED02DD0F82E2BD052
:107F50003CD0F601EF2C8F010F5F1F4F84911BD097
:107F6000EA94F801C1F70894C11CD11CFA94CF0C13
:107F7000D11C0EC0853739F428D08EE10CD085E9AC
:107F80000AD08FE07ACF813511F488E018D01DD067
:107F900080E101D065CF982F8091C00085FFFCCF94
:107FA0009093C60008958091C00087FFFCCF809118
:107FB000C00084FD01C0A8958091C6000895E0E648
:107FC000F0E098E1908380830895EDDF803219F02E
:107FD00088E0F5DFFFCF84E1DECF1F93182FE3DFCA
:107FE0001150E9F7F2DF1F91089580E0E8DFEE27F6
:047FF000FF270994CA
:027FFE00040479
:0400000300007E007B
:00000001FF
