:100000000C94A2000C94CA000C94CA000C94CA0070
:100010000C94CA000C94CA000C94CA000C94D40529
:100020000C94CA000C94CA000C94CA000C94CA0028
:100030000C94CA000C94CA000C94CA000C94CA0018
:100040000C9432050C94CA000C94A2050C947C0507
:100050000C94CA000C94CA000C94CA000C94CA00F8
:100060000C94CA000C94CA005D002C002C000A52AB
:100070004742206973205B000A50726573732061E8
:100080006E79206B657920746F20737461727420AF
:100090002E2E2E003F3F0044415441005748495402
:1000A000452063616C6962726174696F6E00424CD5
:1000B00041434B2063616C6962726174696F6E00C9
:1000C0000A0A52656164696E672076616C75652005
:1000D000666F72200000000000240027002A000044
:1000E000000000250028002B00040404040404047C
:1000F00004020202020202030303030303010204D7
:100100000810204080010204081020010204081099
:1001100020000000080002010000030407000000A6
:1001200000000000000A5B54435332333020436127
:100130006C69627261746F72204578616D706C6574
:100140005D004A0611241FBECFEFD8E0DEBFCDBF51
:1001500011E0A0E0B1E0E8E4F0E102C005900D920A
:10016000A631B107D9F722E0A6E1B1E001C01D92A6
:10017000A230B207E1F710E0C2EAD0E004C0219754
:10018000FE010E940808C13AD107C9F70E94A506DE
:100190000C9422080C9400000F931F93CF93DF93CD
:1001A0008C01C0E0D0E0F801EC0FFD1F64916623E4
:1001B00071F0E0913601F09137010190F081E02D6E
:1001C00086E391E00995892B11F02196ECCFCE01C1
:1001D000DF91CF911F910F910895CF92DF92EF920F
:1001E000FF920F931F93CF93DF936C017A018B01E2
:1001F000C0E0D0E0CE15DF0589F0D8016D918D010A
:10020000D601ED91FC910190F081E02DC601099598
:10021000892B11F47E0102C02196ECCFC701DF913A
:10022000CF911F910F91FF90EF90DF90CF900895A5
:10023000089580E090E00895FC01538D448D252FB2
:1002400030E0842F90E0821B930B541710F0CF9670
:10025000089501970895FC01918D828D981761F0A2
:10026000828DDF01A80FB11D5D968C91928D9F5FED
:100270009F73928F90E008958FEF9FEF0895FC0198
:10028000918D828D981731F0828DE80FF11D858D4B
:1002900090E008958FEF9FEF0895FC01918D228DDE
:1002A000892F90E0805C9F4F821B91098F73992763
:1002B000089586E391E00E944D0121E0892B09F425
:1002C00020E0822F0895FC01848DDF01A80FB11D6D
:1002D000A35ABF4F2C91848D90E001968F7399277C
:1002E000848FA689B7892C93A089B1898C91806469
:1002F0008C93938D848D981306C00288F389E02D2A
:1003000080818F7D80830895EF92FF920F931F93DA
:10031000CF93DF93EC0181E0888F9B8D8C8D9813B8
:1003200005C0E889F989808185FD24C0F62E0B8DF2
:1003300010E00F5F1F4F0F731127E02E8C8DE81216
:100340000CC00FB607FCFACFE889F989808185FFD8
:10035000F5CFCE010E946301F1CF8B8DFE01E80F36
:10036000F11DE35AFF4FF0820B8FEA89FB898081F0
:10037000806207C0EE89FF896083E889F9898081FE
:100380008064808381E090E0DF91CF911F910F9195
:10039000FF90EF900895CF93DF93EC01888D882331
:1003A000C9F0EA89FB89808185FD05C0A889B989E2
:1003B0008C9186FD0FC00FB607FCF5CF808185FFBD
:1003C000F2CFA889B9898C9185FFEDCFCE010E942B
:1003D0006301E7CFDF91CF91089580E090E0892B12
:1003E00029F00E94590181110C940000089590E0B9
:1003F000FC01EF5EFE4F3491FC01E350FF4F24916E
:10040000FC01E751FF4FE491EE2309F43BC0332395
:1004100039F1333091F038F43130A9F0323001F550
:1004200084B58F7D12C0373091F03830A1F0343070
:10043000B9F4809180008F7D03C0809180008F7718
:10044000809380000DC084B58F7784BD09C08091F2
:10045000B0008F7703C08091B0008F7D8093B00093
:10046000F0E0EE0FFF1FE152FF4FA591B4918FB75F
:10047000F894EC91611103C020952E2301C02E2B1E
:100480002C938FBF0895982F8091D4018F3FE9F06E
:100490002091D5012F3FC9F0913041F028F09230E2
:1004A00039F0933051F0089561E003C061E006C077
:1004B00060E00E94F70161E004C060E00E94F70183
:1004C00060E08091D5010C94F7010895682F809128
:1004D000D3018F3F21F091E069270C94F701662347
:1004E00019F08091D90101C083E00C9443024F922E
:1004F0005F926F927F928F929F92AF92BF92FF9284
:100500000F931F93CF93DF93813051F020F082300F
:1005100009F4AEC033C11092350181E00E94660239
:10052000E0913501F0E0E050FF4F90818091D601DD
:100530008F3FE9F02091D7012F3FC9F0913049F06A
:1005400030F0923041F0933091F461E009C060E006
:1005500007C061E001C060E00E94F70161E003C0F4
:100560000E94F70160E08091D7010E94F70160913D
:10057000D80170E088EE93E00E9494076115710540
:1005800009F474C0109234011092330110923201B8
:100590001092310110922D0110922E0110922F0114
:1005A0001092300110922C018091800080932901DB
:1005B0008091810080932801109281001092800028
:1005C000109285001092840081E086BB10926F002B
:1005D0008091B000809327018091B1008093260123
:1005E0001092B10082E08093B000CB018770992710
:1005F000892B51F433E0769567953A95E1F78CE7CE
:100600008093B30087E018C0CB0183709927892BB2
:1006100031F4769567957695679589EF05C060FD0D
:1006200007C0769567958CE78093B30086E004C099
:100630008CE78093B30085E08093250182E087BB3F
:100640001092B20070932B0160932A019FB7F89427
:1006500083BD209125012093B100809370008BE031
:100660008150F1F787E0809381009FBF82E086C0D0
:1006700090912C01992309F481C0E091350181E02A
:100680008E0F80933501F0E0E050FF4FE081F0E005
:100690008FB7F894209121013091220140912301DC
:1006A0005091240110922C018FBFEE0FFF1FEE0F0F
:1006B000FF1FED52FE4FA091D801B0E00E94E90764
:1006C000678F70A381A392A380913501833008F4D2
:1006D00054C01092B1001092700080912701809355
:1006E000B000809126018093B1001092810080912A
:1006F000290180938000809128018093810080E00F
:100700000E946602CAEDD1E00EEF11E0FF24FA94D8
:10071000FE0189909990A990B990808D918DA28DBC
:10072000B38D9C01AD01281939094A095B09AFEF66
:10073000B0E00E94E907488459846A847B84A3015D
:100740009201281939094A095B090E94CA07F80170
:1007500057FF02C0108209C02F3F310541055105E6
:1007600019F014F0F08201C020830F5F1F4FF1E0F9
:10077000C63EDF0769F680E001C081E0DF91CF91DE
:100780001F910F91FF90BF90AF909F908F907F909F
:100790006F905F904F900895CF93DF9390E0FC01AE
:1007A000E350FF4F2491FC01E751FF4F84918823D0
:1007B00061F190E0880F991FFC01EB52FF4FC5914A
:1007C000D491FC01E152FF4FA591B491611109C090
:1007D0009FB7F8948881209582238883EC912E23FB
:1007E0000BC0623061F49FB7F8943881822F8095F6
:1007F00083238883EC912E2B2C939FBF06C08FB749
:10080000F894E8812E2B28838FBFDF91CF91089534
:10081000CF92DF92EF92FF920F931F93CF93DF93CC
:10082000CDB7DEB7A1970FB6F894DEBF0FBECDBF30
:10083000282F30E040E050E019A28E010F5D1F4FDD
:100840008AE0C82ED12CE12CF12CCA01B901A701F4
:1008500096010E94A807605DF80162938F0121153F
:1008600031054105510589F7309769F00190002065
:10087000E9F73197AF01401B510BB80186E391E0D6
:100880000E94ED0002C080E090E0A1960FB6F894BF
:10089000DEBF0FBECDBFDF91CF911F910F91FF90B3
:1008A000EF90DF90CF9008950E941D080F931F9343
:1008B000CF93DF93C82FD62F813011F128F08230EB
:1008C00089F18330B1F1C7C080EC90E00E94CC0088
:1008D000D13049F028F0D23049F487E990E008C0DF
:1008E0008EEA90E005C08CE990E002C084E990E0D7
:1008F0000E94CC0088E790E00E94CC00C1E0ACC030
:1009000086E391E00E944D01892BD1F386E391E0CB
:100910000E942B0186E391E00E942B010196D1F702
:10092000C2E09AC080E00E94770280930102C3E097
:1009300093C0809101020E9477028093010281118D
:100940008BC0D13029F108F454C0D23009F081C0F5
:100950001091FE01D091FF01C09100028EE690E05F
:100960000E94CC00812F0E9408048CE690E00E9437
:10097000CC008D2F0E9408048AE690E00E94CC00F3
:100980008C2F0E94080488E690E00E94CC0061C091
:100990004091F6015091F7016091F8017091F901D1
:1009A0008091FA019091FB01A091FC01B091FD01B1
:1009B0000091F2011091F3012091F4013091F501C1
:1009C0000093E6011093E7012093E8013093E901D9
:1009D0004093EA015093EB016093EC017093ED01B9
:1009E0008093EE019093EF01A093F001B093F10199
:1009F00030C04091F6015091F7016091F80170917B
:100A0000F9018091FA019091FB01A091FC01B09154
:100A1000FD010091F2011091F3012091F401309158
:100A2000F5010093DA011093DB012093DC01309390
:100A3000DD014093DE015093DF016093E00170938C
:100A4000E1018093E2019093E301A093E401B0936C
:100A5000E501C4E001C0C0E08C2FDF91CF911F9170
:100A60000F9108951F920F920FB60F9211242F939A
:100A70003F938F939F93AF93BF9380911D0190916C
:100A80001E01A0911F01B091200130911C0123E0B3
:100A9000230F2D3720F40196A11DB11D05C026E8B6
:100AA000230F0296A11DB11D20931C0180931D01EF
:100AB00090931E01A0931F01B09320018091180113
:100AC00090911901A0911A01B0911B010196A11DED
:100AD000B11D8093180190931901A0931A01B0934E
:100AE0001B01BF91AF919F918F913F912F910F90DB
:100AF0000FBE0F901F9018951F920F920FB60F9276
:100B000011242F933F934F935F936F937F938F9312
:100B10009F93AF93BF93EF93FF9386E391E00E947F
:100B20006301FF91EF91BF91AF919F918F917F9161
:100B30006F915F914F913F912F910F900FBE0F904A
:100B40001F9018951F920F920FB60F9211242F939A
:100B50008F939F93EF93FF93E0914601F0914701AC
:100B60008081E0914C01F0914D0182FD12C0908195
:100B700080914F018F5F8F7320915001821751F048
:100B8000E0914F01F0E0EA5CFE4F958F80934F01BA
:100B900001C08081FF91EF919F918F912F910F90D4
:100BA0000FBE0F901F9018951F920F920FB60F92C5
:100BB00011240F931F932F933F934F935F936F9342
:100BC0007F938F939F93AF93BF9320918400309135
:100BD0008500B09B0BC081E086BB80913101909174
:100BE000320101969093320180933101809133015B
:100BF00090913401019640912A0150912B01841764
:100C0000950798F1109234011092330180913101CF
:100C100090913201A0E0B0E0DC0199278827820F93
:100C2000931FA11DB11D40912D0150912E01609186
:100C30002F01709130018C019D01041B150B260BB7
:100C4000370B00932101109322012093230130934D
:100C5000240180932D0190932E01A0932F01B09336
:100C6000300181E080932C0104C090933401809383
:100C70003301BF91AF919F918F917F916F915F9160
:100C80004F913F912F911F910F910F900FBE0F9099
:100C90001F901895E6E3F1E01382128288EE93E04C
:100CA000A0E0B0E084839583A683B78387E091E0DA
:100CB0009183808385EC90E09587848784EC90E035
:100CC0009787868780EC90E0918B808B81EC90E019
:100CD000938B828B82EC90E0958B848B86EC90E0FA
:100CE000978B868B118E128E138E148EE3EDF1E0AE
:100CF0008FEF818382838AE08583168240E757E104
:100D000060E070E0478350876187728788ED96EDD9
:100D1000A0E0B0E0838B948BA58BB68B4387548780
:100D200065877687878B908FA18FB28F4787508B8F
:100D3000618B728B838F948FA58FB68F86E08383B0
:100D400087E0848388E080830895789484B5826006
:100D500084BD84B5816084BD85B5826085BD85B55F
:100D6000816085BD80916E00816080936E001092DD
:100D70008100809181008260809381008091810058
:100D800081608093810080918000816080938000E9
:100D90008091B10084608093B1008091B000816047
:100DA0008093B00080917A00846080937A00809173
:100DB0007A00826080937A0080917A0081608093CB
:100DC0007A0080917A00806880937A001092C10046
:100DD00061E084E00E94CC0361E085E00E94CC03E6
:100DE00061E086E00E94CC0361E087E00E94CC03D2
:100DF00060E088E00E94CC0361E084E00E94F7019B
:100E000060E085E00E94F701E0914601F091470122
:100E100082E08083E0914601F09147011082E091E9
:100E20004201F09143011082E0914401F0914501AB
:100E300080E1808310924E01E0914A01F0914B01D4
:100E400086E08083E0914801F091490180818061D2
:100E50008083E0914801F09149018081886080831E
:100E6000E0914801F0914901808180688083E091A0
:100E70004801F091490180818F7D808385E291E076
:100E80000E94CC008091D4018F3F19F061E00E9454
:100E9000CC038091D5018F3F19F061E00E94CC0313
:100EA0008091D6018F3F19F061E00E94CC038091C0
:100EB000D7018F3F19F061E00E94CC038091D301EC
:100EC0008F3F19F061E00E94CC0380E00E9466022F
:100ED0008091D9010E94430280911701813079F0FD
:100EE00058F08230E1F441E062E0809116010E9406
:100EF00056048093160115C042E060E002C042E053
:100F000061E0809116010E945604809316018111C0
:100F100008C0809117018F5F8093170102C0109263
:100F200017010E94ED01D8CF97FB072E16F400940D
:100F300007D077FD09D00E94F40707FC05D03EF4E6
:100F4000909581959F4F0895709561957F4F089575
:100F5000A1E21A2EAA1BBB1BFD010DC0AA1FBB1FBD
:100F6000EE1FFF1FA217B307E407F50720F0A21B2F
:100F7000B30BE40BF50B661F771F881F991F1A949C
:100F800069F760957095809590959B01AC01BD01C6
:100F9000CF010895052E97FB1EF400940E94E107EF
:100FA00057FD07D00E94A80707FC03D04EF40C940D
:100FB000E10750954095309521953F4F4F4F5F4F3A
:100FC000089590958095709561957F4F8F4F9F4FB5
:100FD00008950E940E08A59F900DB49F900DA49FA8
:100FE000800D911D11240895AA1BBB1B51E107C060
:100FF000AA1FBB1FA617B70710F0A61BB70B881FA9
:10100000991F5A95A9F780959095BC01CD01089537
:10101000EE0FFF1F0590F491E02D0994A29FB001FF
:10102000B39FC001A39F700D811D1124911DB29F1C
:10103000700D811D1124911D089581E090E0F894B8
:081040000C942208F894FFCF84
:10104800000102000000008401ED001C01CB014DED
:06105800012B013F010025
:107E0000112484B714BE81FFF0D085E080938100F7
:107E100082E08093C00088E18093C10086E0809377
:107E2000C20080E18093C4008EE0C9D0259A86E02C
:107E300020E33CEF91E0309385002093840096BBD3
:107E4000B09BFECF1D9AA8958150A9F7CC24DD24C4
:107E500088248394B5E0AB2EA1E19A2EF3E0BF2EE7
:107E6000A2D0813461F49FD0082FAFD0023811F036
:107E7000013811F484E001C083E08DD089C08234E0
:107E800011F484E103C0853419F485E0A6D080C0E4
:107E9000853579F488D0E82EFF2485D0082F10E0AE
:107EA000102F00270E291F29000F111F8ED06801E7
:107EB0006FC0863521F484E090D080E0DECF843638
:107EC00009F040C070D06FD0082F6DD080E0C81688
:107ED00080E7D80618F4F601B7BEE895C0E0D1E017
:107EE00062D089930C17E1F7F0E0CF16F0E7DF06D8
:107EF00018F0F601B7BEE89568D007B600FCFDCFD4
:107F0000A601A0E0B1E02C9130E011968C91119780
:107F100090E0982F8827822B932B1296FA010C0160
:107F200087BEE89511244E5F5F4FF1E0A038BF0790
:107F300051F7F601A7BEE89507B600FCFDCF97BE46
:107F4000E89526C08437B1F42ED02DD0F82E2BD052
:107F50003CD0F601EF2C8F010F5F1F4F84911BD097
:107F6000EA94F801C1F70894C11CD11CFA94CF0C13
:107F7000D11C0EC0853739F428D08EE10CD085E9AC
:107F80000AD08FE07ACF813511F488E018D01DD067
:107F900080E101D065CF982F8091C00085FFFCCF94
:107FA0009093C60008958091C00087FFFCCF809118
:107FB000C00084FD01C0A8958091C6000895E0E648
:107FC000F0E098E1908380830895EDDF803219F02E
:107FD00088E0F5DFFFCF84E1DECF1F93182FE3DFCA
:107FE0001150E9F7F2DF1F91089580E0E8DFEE27F6
:047FF000FF270994CA
:027FFE00040479
:0400000300007E007B
:00000001FF
