:100000000C9462000C948A000C948A000C948A0070
:100010000C948A000C948A000C948A000C948A0038
:100020000C948A000C948A000C948A000C948A0028
:100030000C948A000C948A000C948A000C948A0018
:100040000C948B030C948A000C9459030C94330386
:100050000C948A000C948A000C948A000C948A00F8
:100060000C948A000C948A000000000024002700F1
:100070002A0000000000250028002B0000000008D6
:10008000000201000003040700000000000000005F
:1000900000000000230026002900040404040404D6
:1000A0000404020202020202030303030303010227
:1000B00004081020408001020408102001020408F6
:1000C00010200F0511241FBECFEFD8E0DEBFCDBF3B
:1000D00011E0A0E0B1E0E6EDFAE002C005900D927B
:1000E000A432B107D9F721E0A4E2B1E001C01D922A
:1000F000AC3CB207E1F710E0C2E6D0E004C02197C3
:10010000FE010E945E05C136D107C9F70E941A049C
:100110000C9469050C940000CF92DF92EF92FF924D
:100120000F931F93CF93DF936C017A018B01C0E093
:10013000D0E0CE15DF0589F0D8016D918D01D60193
:10014000ED91FC910190F081E02DC6010995892B7C
:1001500011F47E0102C02196ECCFC701DF91CF914F
:100160001F910F91FF90EF90DF90CF900895089529
:1001700080E090E00895FC01538D448D252F30E000
:10018000842F90E0821B930B541710F0CF960895A4
:1001900001970895FC01918D828D981761F0828DF1
:1001A000DF01A80FB11D5D968C91928D9F5F9F73AB
:1001B000928F90E008958FEF9FEF0895FC01918D4D
:1001C000828D981731F0828DE80FF11D858D90E0BA
:1001D00008958FEF9FEF0895FC01918D228D892F57
:1001E00090E0805C9F4F821B91098F73992708953F
:1001F0008FE291E00E94EC0021E0892B09F420E0DD
:10020000822F0895FC01848DDF01A80FB11DA35A30
:10021000BF4F2C91848D90E001968F739927848F26
:10022000A689B7892C93A089B1898C9180648C931D
:10023000938D848D981306C00288F389E02D808108
:100240008F7D80830895EF92FF920F931F93CF933A
:10025000DF93EC0181E0888F9B8D8C8D981305C016
:10026000E889F989808185FD24C0F62E0B8D10E088
:100270000F5F1F4F0F731127E02E8C8DE8120CC0FB
:100280000FB607FCFACFE889F989808185FFF5CFA1
:10029000CE010E940201F1CF8B8DFE01E80FF11D0E
:1002A000E35AFF4FF0820B8FEA89FB8980818062DD
:1002B00007C0EE89FF896083E889F98980818064BD
:1002C000808381E090E0DF91CF911F910F91FF90AB
:1002D000EF900895CF93DF93EC01888D8823C9F0C8
:1002E000EA89FB89808185FD05C0A889B9898C913F
:1002F00086FD0FC00FB607FCF5CF808185FFF2CFDA
:10030000A889B9898C9185FFEDCFCE010E940201A9
:10031000E7CFDF91CF91089580E090E0892B29F01D
:100320000E94F80081110C940000089590E0FC01F7
:10033000E458FF4F3491FC01E255FF4F2491FC013A
:10034000E656FF4FE491EE2309F43BC0332339F125
:10035000333091F038F43130A9F0323001F584B502
:100360008F7D12C0373091F03830A1F03430B9F4BD
:10037000809180008F7D03C0809180008F77809373
:1003800080000DC084B58F7784BD09C08091B00016
:100390008F7703C08091B0008F7D8093B000F0E034
:1003A000EE0FFF1FEE58FF4FA591B4918FB7F89451
:1003B000EC91611103C020952E2301C02E2B2C93AC
:1003C0008FBF0895CF93DF9390E0FC01E255FF4F7C
:1003D0002491FC01E656FF4F8491882361F190E05F
:1003E000880F991FFC01E859FF4FC591D491FC017A
:1003F000EE58FF4FA591B491611109C09FB7F894D1
:100400008881209582238883EC912E230BC0623053
:1004100061F49FB7F8943881822F80958323888375
:10042000EC912E2B2C939FBF06C08FB7F894E881D8
:100430002E2B28838FBFDF91CF9108953FB7F8947B
:100440008091290190912A01A0912B01B0912C015A
:1004500026B5A89B05C02F3F19F00196A11DB11D1F
:100460003FBFBA2FA92F982F8827820F911DA11D5A
:10047000B11DBC01CD0142E0660F771F881F991F97
:100480004A95D1F708958F929F92AF92BF92CF92E3
:10049000DF92EF92FF920E941E024B015C0184E604
:1004A000C82ED12CE12CF12C0E941E02DC01CB01C4
:1004B00088199909AA09BB09883E9340A105B1058D
:1004C00058F021E0C21AD108E108F10888EE880E40
:1004D00083E0981EA11CB11CC114D104E104F104F5
:1004E00019F7FF90EF90DF90CF90BF90AF909F9063
:1004F0008F900895009769F0FC0101900020E9F7C2
:100500003197AF01481B590BBC018FE291E00C946D
:100510008C0080E090E008958F929F92AF92BF92FE
:10052000CF92DF92EF92FF920F931F93CF93DF93BF
:10053000CDB7DEB7A1970FB6F894DEBF0FBECDBF23
:100540006C01990FEE08FF08F7FE31C0E0912F0112
:10055000F09130010190F081E02D6DE28FE291E0A9
:1005600009958C0122273327A9012C193D094E0931
:100570005F0919A2CE0181967C019AE0892E912C07
:10058000A12CB12CCA01B901A50194010E943C051E
:10059000605DF70162937F01211531054105510529
:1005A00089F7CF010E947A02800F911F1DC0A70119
:1005B000960119A28E010F5D1F4F8AE0C82ED12C23
:1005C000E12CF12CCA01B901A70196010E943C055A
:1005D000605DF80162938F012115310541055105D8
:1005E00089F7CF010E947A02A1960FB6F894DEBF78
:1005F0000FBECDBFDF91CF911F910F91FF90EF9074
:10060000DF90CF90BF90AF909F908F9008950F9301
:100610001F93E6EBF0E06491E2EAF0E0E491F0E0B1
:10062000EE0FFF1FE057FF4F8591949100E412E415
:100630002FE030E040E00E94D5036115710581058F
:10064000910549F0DC01CB010196A11DB11DBC0152
:10065000CD019F7003C060E070E0CB011F910F914E
:1006600008950E9464051F920F920FB60F921124F5
:100670002F933F934F935F936F937F938F939F93AA
:10068000AF93BF93EF93FF938FE291E00E9402013B
:10069000FF91EF91BF91AF919F918F917F916F915A
:1006A0005F914F913F912F910F900FBE0F901F9030
:1006B00018951F920F920FB60F9211242F938F93BC
:1006C0009F93EF93FF93E0913F01F0914001808170
:1006D000E0914501F091460182FD12C09081809128
:1006E00048018F5F8F7320914901821751F0E0918B
:1006F0004801F0E0E15DFE4F958F8093480101C015
:100700008081FF91EF919F918F912F910F900FBE5C
:100710000F901F9018951F920F920FB60F921124F1
:100720002F933F938F939F93AF93BF938091250116
:1007300090912601A0912701B091280130912401C8
:1007400023E0230F2D3720F40196A11DB11D05C014
:1007500026E8230F0296A11DB11D2093240180934A
:10076000250190932601A0932701B0932801809141
:10077000290190912A01A0912B01B0912C010196A1
:10078000A11DB11D8093290190932A01A0932B01F3
:10079000B0932C01BF91AF919F918F913F912F9179
:1007A0000F900FBE0F901F901895CF92DF92EF928F
:1007B000FF920F931F93E82FF92F05C001501109E5
:1007C0002109310961F1908196239417B9F305C08D
:1007D000015011092109310911F1908196239413D7
:1007E000F7CFC12CD12CE12CF12C0AC08FEFC81A05
:1007F000D80AE80AF80A0C151D052E053F0579F000
:1008000080818623841791F36C2D7D2D8E2D9F2D55
:100810001F910F91FF90EF90DF90CF90089560E0CF
:1008200070E080E090E01F910F91FF90EF90DF90DB
:10083000CF900895789484B5826084BD84B581603A
:1008400084BD85B5826085BD85B5816085BD80919B
:100850006E00816080936E00109281008091810013
:10086000826080938100809181008160809381000B
:10087000809180008160809380008091B1008460CD
:100880008093B1008091B00081608093B00080912E
:100890007A00846080937A0080917A0082608093ED
:1008A0007A0080917A00816080937A0080917A004A
:1008B000806880937A001092C10061E084E00E9419
:1008C000E20161E085E00E94E20161E086E00E94D1
:1008D000E20161E087E00E94E20160E088E00E94BE
:1008E000E20161E084E00E94960160E085E00E9400
:1008F0009601E0913F01F091400182E08083E09118
:100900003B01F0913C011082E0913D01F0913E01EC
:100910008FEC808310924701E0914301F0914401F4
:1009200086E08083E0914101F09142018081806105
:100930008083E0914101F091420180818860808351
:10094000E0914101F0914201808180688083E091D3
:100950004101F091420180818F7D808360E086E0DB
:100960000E94960160E087E00E9496010E940703C2
:1009700070932E0160932D0182E191E00E947A0232
:1009800080912D0190912E010E948C0286E191E0D0
:100990000E947A020E94430261E086E00E94960172
:1009A00061E087E00E9496010E94070370932E0188
:1009B00060932D0189E191E00E947A0280912D01DE
:1009C00090912E010E948C0286E191E00E947A02B1
:1009D0000E94430260E086E00E94960161E087E0A9
:1009E0000E9496010E94070370932E0160932D01CF
:1009F0008DE191E00E947A0280912D0190912E016B
:100A00000E948C0286E191E00E947A0281E291E0EC
:100A10000E947A020E9443020E948C019FCFEFE263
:100A2000F1E01382128288EE93E0A0E0B0E08483CC
:100A30009583A683B78384E091E09183808385ECDE
:100A400090E09587848784EC90E09787868780EC98
:100A500090E0918B808B81EC90E0938B828B82EC89
:100A600090E0958B848B86EC90E0978B868B118E33
:100A7000128E138E148E0895A1E21A2EAA1BBB1B90
:100A8000FD010DC0AA1FBB1FEE1FFF1FA217B3075A
:100A9000E407F50720F0A21BB30BE40BF50B661F70
:100AA000771F881F991F1A9469F760957095809534
:100AB00090959B01AC01BD01CF010895EE0FFF1F82
:100AC0000590F491E02D099481E090E0F8940C9465
:060AD0006905F894FFCF58
:100AD6000000000023018C00BB006A01EC00CA0084
:100AE600DE00523D2000202000473D2000423D20F0
:040AF600000D0A00E5
:107E0000112484B714BE81FFF0D085E080938100F7
:107E100082E08093C00088E18093C10086E0809377
:107E2000C20080E18093C4008EE0C9D0259A86E02C
:107E300020E33CEF91E0309385002093840096BBD3
:107E4000B09BFECF1D9AA8958150A9F7CC24DD24C4
:107E500088248394B5E0AB2EA1E19A2EF3E0BF2EE7
:107E6000A2D0813461F49FD0082FAFD0023811F036
:107E7000013811F484E001C083E08DD089C08234E0
:107E800011F484E103C0853419F485E0A6D080C0E4
:107E9000853579F488D0E82EFF2485D0082F10E0AE
:107EA000102F00270E291F29000F111F8ED06801E7
:107EB0006FC0863521F484E090D080E0DECF843638
:107EC00009F040C070D06FD0082F6DD080E0C81688
:107ED00080E7D80618F4F601B7BEE895C0E0D1E017
:107EE00062D089930C17E1F7F0E0CF16F0E7DF06D8
:107EF00018F0F601B7BEE89568D007B600FCFDCFD4
:107F0000A601A0E0B1E02C9130E011968C91119780
:107F100090E0982F8827822B932B1296FA010C0160
:107F200087BEE89511244E5F5F4FF1E0A038BF0790
:107F300051F7F601A7BEE89507B600FCFDCF97BE46
:107F4000E89526C08437B1F42ED02DD0F82E2BD052
:107F50003CD0F601EF2C8F010F5F1F4F84911BD097
:107F6000EA94F801C1F70894C11CD11CFA94CF0C13
:107F7000D11C0EC0853739F428D08EE10CD085E9AC
:107F80000AD08FE07ACF813511F488E018D01DD067
:107F900080E101D065CF982F8091C00085FFFCCF94
:107FA0009093C60008958091C00087FFFCCF809118
:107FB000C00084FD01C0A8958091C6000895E0E648
:107FC000F0E098E1908380830895EDDF803219F02E
:107FD00088E0F5DFFFCF84E1DECF1F93182FE3DFCA
:107FE0001150E9F7F2DF1F91089580E0E8DFEE27F6
:047FF000FF270994CA
:027FFE00040479
:0400000300007E007B
:00000001FF
